:100000001701020013010149970102009381817FCA
:10001000EF00000D0B1000006FF0DFFFB7080300CA
:1000200003A8080003A30800B798000013170701EE
:1000300023A86804B708030003A34800B79800008A
:100040003367D70023AA6804B708030003A3880016
:10005000B79800001318080123AC6804B798000093
:1000600023A40800B796000023A6E6003305050187
:10007000379700002328A70037970000232AB700EE
:100080003306060137970000232EC700B71600007D
:10009000379700002320D70637970000B7063000B7
:1000A0002322D706130720006384070013072010BC
:1000B000B797000023A4E706B79700003737000082
:1000C00023A4E704B79700003707010023AEE70435
:1000D000B79700001307100023A0E7006780000017
:1000E000B797000023A2070267800000B70603004D
:1000F00083A7060003A60600B796000093970701A2
:1001000023A8C604B706030003A64600B79600005E
:100110003787000023AAC604B706030003A686009B
:10012000B79600003387E70023ACC604B7960000FB
:100130003706010023A4060013061600B796000038
:1001400023A6C600B796000023A8F600B7970000C4
:1001500023AA0700B797000023AEE700B797000077
:100160001307100023A0E700B707030023A8070028
:100170006780000037460000130101FF130780006D
:100180009307000093068001130606809305000084
:100190001305000023261100EFF05FE837970000F9
:1001A000130747008327070093F71700E39C07FE18
:1001B000376600001307800093068001130606804F
:1001C000B705600013050000EFF05FE5379700000A
:1001D000130747008327070093F71700E39C07FEE8
:1001E0008320C100B70703001307100023A8E7000E
:1001F000130101016780000037A600003785000069
:10020000130101FF930710001307000C9306100061
:1002100013060681B705C0001305058023261100CB
:10022000EFF0DFDF8320C100B707030023A807003A
:1002300013010101678000003707030083270700CF
:1002400037C60000B786000093970701B386D70032
:10025000B387C70003260700379700002328C70489
:10026000370703000326470037970000232AC704F7
:10027000370703000326870037970000232CC704A5
:1002800037970000130600022324C7003706010039
:1002900037970000130616002326C7003797000083
:1002A0002328D70037970000232A0700379700003C
:1002B000232EF700B79700001307100023A0E700D4
:1002C000B707030023A8070067800000B7070400F2
:1002D00083A60738130600013707040093070000C0
:1002E0008325070063820506930547006396060091
:1002F00003254700630A05042320070023A0050007
:100300003707030003270700B7060400938606306B
:10031000131727003307D7002320F70037070400FF
:100320001307072093972700B387E70003A7070069
:10033000B707030023A4E700B70703001307100063
:1003400023A8E70067800000938717001307870042
:08035000E398C7F86FF05FF8B5
:100358002F6C69622F6C642D6C696E75782D7269CB
:1003680073637633322D696C7033322E736F2E318E
:010378000084
:10037C000000000000000000000000000000000071
:10038C00000000000000000000000000030001005D
:01039C000060
:1003A000010000000100000001000000000000004A
:0803B000000000000000000045
:020000022000DC
:10000000F5FEFF6FA0030000050000009C03000048
:10001000060000007C0300000A0000000100000050
:100020000B000000100000001500000000000000A0
:1000300007000000000000000800000000000000B1
:10004000090000000C0000001E0000000800000075
:10005000FBFFFF6F0100000800000000000000002F
:100060000000000000000000000000000000000090
:100070000000000000000000000000000000000080
:08008000000000000000000078
:040088000000020072
:00000001FF
