:100000001701020013010149970102009381817FCA
:10001000EF0040120B1000006FF0DFFFB708030085
:1000200003A8080003A30800B798000013170701EE
:1000300023A86804B708030003A34800B79800008A
:100040003367D70023AA6804B708030003A3880016
:10005000B79800001318080123AC6804B798000093
:1000600023A40800B796000023A6E6003305050187
:10007000379700002328A70037970000232AB700EE
:100080003306060137970000232EC700B71600007D
:10009000379700002320D70637970000B7063000B7
:1000A0002322D706130720006384070013072010BC
:1000B000B797000023A4E706B79700003737000082
:1000C00023A4E704B79700003707010023AEE70435
:1000D000B79700001307100023A0E7006780000017
:1000E00037970000130747008327070093F717008F
:1000F000E39C07FE67800000131515009307C000FE
:100100003305B5003305F502B707040037070400CF
:100110009387C7003307E500B307F5000325070001
:100120006308050013074700E31AF7FE13051000E4
:1001300067800000B797000023A2070267800000D5
:10014000B706030083A7060003A60600B7960000C3
:100150009397070123A8C604B706030003A6460029
:10016000B79600003787000023AAC604B70603002D
:1001700003A68600B79600003387E70023ACC604C9
:10018000B79600003706010023A4060013061600E8
:10019000B796000023A6C600B796000023A8F60075
:1001A000B797000023AA0700B797000023AEE70027
:1001B00013071000B797000023A0E700B70703005C
:1001C00023A8E7006780000037460000130101FF05
:1001D0009307000013078000930680011306068032
:1001E000930500001305000023261100EFF01FE324
:1001F000EFF01FEF37660000930700001307800041
:100200009306800113060680B70560001305000001
:10021000EFF0DFE0EFF0DFEC8320C100B707030071
:100220001307100023A8E7001301010167800000F5
:1002300037A6000037850000130101FF9307100067
:10024000130700049306100013060681B705C000CB
:100250001305058023261100EFF05FDCEFF05FE867
:1002600037C600003785000093071000130700040D
:100270009306100013060689B705D0001305058004
:10028000EFF0DFD9EFF0DFE537E60000378500005B
:10029000930710001307000493061000130606913D
:1002A000B705E00013050580EFF05FD7EFF05FE3DF
:1002B0008320C100B70703001307100023A8E7003D
:1002C000130101016780000037070300832707003F
:1002D00037C60000B786000093970701B386D700A2
:1002E000B387C70003260700379700002328C704F9
:1002F000370703000326470037970000232AC70467
:10030000370703000326870037970000232CC70414
:1003100037970000130600022324C70037060100A8
:1003200037970000130616002326C70037970000F2
:100330002328D70037970000232A070037970000AB
:10034000232EF70013071000B797000023A0E70043
:10035000B707030023A8E70067800000130101FF2F
:10036000B70704002322910083A4073823248100C7
:10037000232021012326110013040000130900018A
:100380009305000013050400EFF01FD7630E050866
:1003900063840408130780013307E402B7060400EE
:1003A000B707040093868601B307F7003307D70029
:1003B00023A0070093874700E31CF7FEB70703005D
:1003C00083A7070037070400130707309397270018
:1003D000B387E70023A08700B707040093870720AF
:1003E000131424003304F400032704008320C10005
:1003F00003248100B707030023A4E700B707030025
:100400001307100023A8E7008324410003290100FB
:10041000130101016780000093051000130504001B
:10042000EFF09FCDE31805F613041400E31A24F54A
:08043000130400006FF0DFF47B
:100438002F6C69622F6C642D6C696E75782D7269EA
:1004480073637633322D696C7033322E736F2E31AD
:0104580000A3
:10045C000000000000000000000000000000000090
:10046C00000000000000000000000000030001007C
:01047C00007F
:100480000100000001000000010000000000000069
:08049000000000000000000064
:020000022000DC
:10000000F5FEFF6F80040000050000007C04000086
:10001000060000005C0400000A000000010000006F
:100020000B000000100000001500000000000000A0
:1000300007000000000000000800000000000000B1
:10004000090000000C0000001E0000000800000075
:10005000FBFFFF6F0100000800000000000000002F
:100060000000000000000000000000000000000090
:100070000000000000000000000000000000000080
:08008000000000000000000078
:040088000000020072
:00000001FF
