:100000001701020013010149970102009381817FCA
:10001000EF00C0000B1000006FF0DFFFB7C700005B
:1000200023A207006780000037070300832707002B
:100030003786000003270700939707013386C70020
:10004000B7C50000B7C6000023A4C600B387B70039
:10005000B7C6000023A6F600931727013707020052
:1000600013076700B3E7E70023A0F500B707030015
:1000700023A80700678000003707030083270700D5
:1000800037C600000327070093970701B7860000D3
:10009000B385C700B387D700B7C6000023A4B60056
:1000A000B7C6000023A6F600931727013707020101
:1000B00013076710B3E7E7002320F600B707030034
:1000C00023A80700678000009305400037D7000091
:1000D000B707030083A70700930640102320B7004B
:1000E000232AD70037D700002322070093065000A9
:1000F00037D700002326D70237D700002320070474
:100100009306001037D700002328D70237D7000006
:100110002320B710370730001307671037D60000C9
:100120002324E61037D600002322061013052000F2
:1001300037D600002326A61237D60000232E06123B
:100140001305800037D600002320A61437D6000000
:100150002328D61237D600002320B62037D6000039
:100160002324E62037D70000130630202322C7209F
:1001700037D700002326072237D70000232EA722D7
:1001800037D700002328D72237470000939707016D
:10019000130707803385E7003786000037670000C4
:1001A000B7C60000130707801306068023A4A60025
:1001B0003386C7003388E7003703000137C70000E4
:1001C0002326C700B7C500001303630023A0650002
:1001D00023A4A600B70800012326C700938868104F
:1001E00023A0150123A406012326C7003708000118
:1001F0003756000013086820130606803775000084
:10020000379E000023A005013386C7001305058033
:10021000130E0E8023A4C6003385A700B387C70141
:100220002326F70023A0650023A4C6002326F70099
:1002300023A0150123A4A6002326F70023A005016F
:1002400037F7000083270700E39E07FEB707030088
:100250001307100023A8E700678000009305400003
:1002600037D70000B707030083A707002320B73064
:1002700037D70000232207309306100037D700003D
:100280002326D7321305000137D700002320A734D7
:100290003727000013070780B7D6000023A8E632EF
:1002A000B7D6000023A0B640B7053000B7D600008F
:1002B0009385151023A4B640B7D6000093054020BF
:1002C00023A2B640B7D6000023A60642B7D6000048
:1002D00023AEA64293970701B7D6000023A8E642B3
:1002E00013860701B7C6000023A4C60037C7000065
:1002F000B70500012326C70037C500009385653088
:100300002320B500B765000093850511B387B700BA
:1003100023A4F600B70700012326C7009387674090
:100320002320F50037F7000083270700E39E07FE30
:10033000B70703001307100023A8E7006780000039
:10034000B7060400B7050400370604009386465834
:10035000938505501306065803A706009377F70008
:1003600093972700B387B70083A70700638607002A
:100370001307170023A0E60083270600E30EF7FC0F
:1003800093F5F700370704009396250013070750ED
:100390003387E60023200700938717002320F60009
:1003A000B707030083A70700370704001307875820
:1003B00093972700B387E70023A0B700B70704008F
:1003C00093870754B386F60003A70600B707030018
:1003D00023A4E700B70703001307100023A8E700D2
:0403E0006780000032
:1003E4002F6C69622F6C642D6C696E75782D72693F
:1003F40073637633322D696C7033322E736F2E3102
:0104040000F7
:1004080000000000000000000000000000000000E4
:1004180000000000000000000000000003000100D0
:0104280000D3
:10042C0001000000010000000100000000000000BD
:08043C000000000000000000B8
:020000022000DC
:10000000F5FEFF6F2C04000005000000280400002E
:1000100006000000080400000A00000001000000C3
:100020000B000000100000001500000000000000A0
:1000300007000000000000000800000000000000B1
:10004000090000000C0000001E0000000800000075
:10005000FBFFFF6F0100000800000000000000002F
:100060000000000000000000000000000000000090
:100070000000000000000000000000000000000080
:08008000000000000000000078
:040088000000020072
:00000001FF
