:100000001701020013010149970102009381817FCA
:10001000EF00C0080B1000006FF0DFFFB707030010
:100020009387870083A707003707040037C60000BF
:10003000832607401306063093F7F700B387C702FD
:100040003727000037660000130707081306061855
:100050003305E50237A7000013070780B386C60201
:100060003307E500B387D700B786000023A0E6205A
:10007000B387A700378700002322F720B787000047
:100080001307204023A2E72237870000B78700002C
:100090001307270023A4E72267800000B78700002A
:1000A00023A4072067800000B787000003A747212B
:1000B000B787000023ACE720B7071800130710002C
:1000C00023A0E702B707030023A8E700678000002A
:1000D000B787000023A00720B787000023A20720CE
:1000E00013070004B787000023A2E7223787000028
:1000F000B78700001307270023A4E722B7070300F0
:100100001307100023A8E70067800000B7870000EE
:1001100023A00720B787000023A2072013070004AD
:10012000B787000023A2E72237870000B7870000C7
:100130001307270023A4E722B707030013071000C3
:1001400023A8E70067800000B787000023A00720EE
:10015000B787000023A2072013070004B787000019
:1001600023A2E72237870000B78700001307270084
:1001700023A4E722B70703001307100023A8E70012
:1001800067800000B787000023A00720B787000022
:1001900023A2072013070004B787000023A2E72249
:1001A000B78700003787000023A4E722B7070300C2
:1001B0001307100023A8E70067800000B78700003E
:1001C00023A00720B787000023A2072013070004FD
:1001D000B787000023A2E722B78700003787000017
:1001E00023A4E722B70703001307100023A8E700A2
:1001F00067800000B787000023A00720B7870000B2
:1002000023A2072013070004B787000023A2E722D8
:1002100037870000B78700001307270023A4E722D1
:10022000B70703001307100023A8E700678000004A
:10023000B78700003787000023A0E720B7870000BA
:1002400023A2072013070001B787000023A2E7229B
:1002500037870000B78700001307270023A4E72291
:10026000B70703001307100023A8E700678000000A
:10027000B787000037C7000023A0E720B78700003A
:1002800023A2072013070001B787000023A2E7225B
:1002900037870000B78700001307270023A4E72251
:1002A000B70703001307100023A8E70067800000CA
:1002B000B70703009387870083A707003707040069
:1002C00013070740B7C600000327070093860630D0
:1002D00093F7F700B387D702B76600009386061836
:1002E000B785000037860000130820401303200064
:1002F00037250000B7C80000130505083307D702EB
:10030000B786000093880888B387E70037A7000006
:100310001307078023A0E5202322F62023A206232B
:10032000378700002324672223A015213385A700E7
:100330002322A620374500001305051023A206231B
:10034000B387A70037E50000232467221305059033
:1003500023A0A5202322F620B787000023A206238E
:10036000938727002324F722B70703001307100001
:1003700023A8E70067800000130101FF13050000B8
:1003800023261100EFF09FC98320C100B7070300A7
:100390001307100023A8E700130101016780000084
:1003A000130101FF1305100023261100EFF01FC7F2
:1003B0008320C100B70703001307100023A8E7003C
:1003C0001301010167800000130101FF13052000E4
:1003D00023261100EFF09FC48320C100B70703005C
:1003E0001307100023A8E700130101016780000034
:1003F0003707030083278700832687003707040019
:1004000093F7F7001307072093972700B387E700B8
:1004100023A0D70013071000B707180023A0E70296
:10042000B707030023A8070067800000B707030091
:1004300083A70700370704001307073093972700A7
:10044000B387E70003A70700B7C70000938707300B
:100450003307F702B787000023A0E720B787000023
:100460003727000023A2072013070786B78700005D
:1004700023A2E72237870000B78700001307470051
:1004800023A4E722B70703001307100023A8E700FF
:1004900067800000B70703009387870083A70700E2
:1004A00037C700001307073093F7F700B387E70259
:1004B0003767000013070718B7850000378600006C
:1004C000130520409308200037280000130808086F
:1004D000B386E700378700002320072023A2D5201A
:1004E0002322A622B786000023A416231307072081
:1004F000232007013383E70037A8000023A26520EB
:10050000130808282322A622B387070137480000D2
:1005100023A41623130808102320070123A2F52083
:10052000B78700002322A6229387270023A4F62260
:1005300013071000B707030023A8E7006780000037
:10054000370704008326875CB707030083A587006D
:100550003706040093F7F600939727001306065416
:10056000B387C70023A0B700938616002324D75C67
:10057000B70718001307100023A0E702B70703000E
:1005800023A8070067800000B707030083A70700C0
:10059000370704001307875893972700B387E700AE
:1005A00083A707003737000093F7F700B387E70208
:1005B000378700002320F720B787000023A20720F9
:1005C00013070060B787000023A2E72237870000E7
:1005D000B78700001307370023A4E722B7070300FB
:1005E0001307100023A8E70067800000B707030087
:1005F00083A707003707040013078758939727003E
:10060000B7060400B387E70003A7070083A7C65C0B
:100610001377F7001386170023A6C65CB7360000D1
:100620003307D70293F7F700B387D702B7860000E6
:1006300023A0E620378700002322F720B787000099
:100640001307006023A2E72237870000B787000066
:100650001307370023A4E722B7070300130710008E
:1006600023A8E70067800000B70703001307100006
:1006700023A8E70067800000B707040003A7075D11
:100680001307170023A8E75CB7071800130710002B
:1006900023A0E702B707030023A807006780000034
:1006A000B787000003A74721B787000023ACE720E6
:1006B000B70703001307100023A8E70067800000B6
:1006C000B70703001307100023A8E70067800000A6
:1006D0002F6C69622F6C642D6C696E75782D726950
:1006E00073637633322D696C7033322E736F2E3113
:0106F0000009
:1006F40000000000000000000000000000000000F6
:1007040000000000000000000000000003000100E1
:0107140000E4
:1007180001000000010000000100000000000000CE
:080728000000000000000000C9
:020000022000DC
:10000000F5FEFF6F18070000050000001407000050
:1000100006000000F40600000A00000001000000D5
:100020000B000000100000001500000000000000A0
:1000300007000000000000000800000000000000B1
:10004000090000000C0000001E0000000800000075
:10005000FBFFFF6F0100000800000000000000002F
:100060000000000000000000000000000000000090
:100070000000000000000000000000000000000080
:08008000000000000000000078
:040088000000020072
:00000001FF
