:100000001701020013010149970102009381817FCA
:10001000EF0080170B3000006FF0DFFF370E03009A
:1000200003230E00832E0E00131303010B982E8062
:10003000B70E0300938E4E0083AE0E000B9A2E80F7
:10004000B70E0300938E8E0083AE0E000B9C2E80A5
:100050000B9406809397070133E7E7000B160780A0
:10006000330565000B1805800B9A05803306660082
:100070000B1E06800B1038800B123E809307200069
:1000800063840800930720100B943780B727000083
:10009000938707800B942780B70701000B9E27806A
:1000A000930710000B900780678000008B07028089
:1000B00093F71700E39C07FE67800000930700306A
:1000C0003305F50237260000130101FE93080000F6
:1000D0001308002093074000130760009306900266
:1000E0001306060193050000232E11002326A1000C
:1000F000EFF0DFF2EFF09FFB0325C1003726000091
:1001000093080000130800209307400013076000C5
:100110009306900213060641B7051000EFF01FF09A
:10012000EFF0DFF80B2000808320C10113010102F2
:1001300067800000930700603305F5023746000032
:1001400013060680130101FF930810001308001026
:1001500093076000130740009306B002B705200024
:100160003306C5003735000013050510232611009E
:10017000EFF0DFEAEFF09FF30B2000808320C10057
:100180001301010167800000930700000B921780A4
:100190006780000037070300832707000327070055
:1001A000939707010B1827803707030013074700B1
:1001B000032707000B1A2780370703001307870060
:1001C000032707000B1C2780130790020B140780DE
:1001D00037070100130717000B1607800B980780DD
:1001E000130700000B1A078037870000B387E7006A
:1001F0000B9E0780930710000B9007800B20008058
:1002000067800000130500006FF05FEB130510001E
:100210006FF0DFEA130520006FF05FEA130530008E
:100220006FF0DFE9130540006FF05FE91305500040
:100230006FF0DFE8130560006FF05FE813057000F2
:100240006FF0DFE7130500006FF0DFEE130510001D
:100250006FF05FEE130520006FF0DFED1305300047
:100260006FF05FED130540006FF0DFEC13055000F9
:100270006FF05FEC130560006FF0DFEB13057000AB
:100280006FF05FEBB707040083A607381306000181
:10029000370704009307000083250700638E0504D9
:1002A000930547006396060003254700630605048F
:1002B0002320070023A005003707030003270700BA
:1002C000B706040093860630131727003307D700BC
:1002D0002320F70037070400130707209397270010
:1002E000B387E70003A70700B707030023A4E700CD
:1002F0000B2000806780000093871700130787009A
:10030000E39CC7F86FF0DFF8B7060400B7050400F8
:100310003706040093864658938505501306065801
:1003200003A706009377F70093972700B387B700DA
:1003300083A70700638607001307170023A0E600C2
:1003400083270600E30EF7FC93F5F7003707040058
:1003500093962500130707503387E60023200700F4
:10036000938717002320F600B707030083A7070031
:10037000370704001307875893972700B387E700D0
:1003800023A0B700B707040093870754B386F6008D
:1003900003A70600B707030023A4E7000B20008093
:0403A0006780000072
:1003A4002F6C69622F6C642D6C696E75782D72697F
:1003B40073637633322D696C7033322E736F2E3142
:0103C4000038
:1003C8000000000000000000000000000000000025
:1003D8000000000000000000000000000300010011
:0103E8000014
:1003EC0001000000010000000100000000000000FE
:0803FC000000000000000000F9
:020000022000DC
:10000000F5FEFF6FEC03000005000000E8030000B0
:1000100006000000C80300000A0000000100000004
:100020000B000000100000001500000000000000A0
:1000300007000000000000000800000000000000B1
:10004000090000000C0000001E0000000800000075
:10005000FBFFFF6F0100000800000000000000002F
:100060000000000000000000000000000000000090
:100070000000000000000000000000000000000080
:08008000000000000000000078
:040088000000020072
:00000001FF
