:100000001701020013010141970102009381817FD2
:10001000EF00401F0B2000000B1805800B9C158083
:10002000930730000B900780B707180013071000E4
:1000300023A0E7020B200000678000009307006008
:100040003305F502B7470000938707803305F500B5
:100050000B1605800B1805809307B0000B900780E6
:100060000B20000067800000930700000B940788B6
:100070000B960788370701000B12178837260000F8
:10008000130606800B1A1688B70600200B98068800
:100090000B9A06880B1417881303000C0B1C13888B
:1000A0000B9C0788B70800300B9E08880B961788B2
:1000B000130800100B1E1888930580230B942588C5
:1000C0000B9447880B9647880B1257880B9A5788D2
:1000D000930580200B946588B72500000B948588D4
:1000E000B7350000938505880B9685880B12978895
:1000F000B7150000938505810B9A95881305A020FC
:100100000B14A588B7350000938505100B94C5889E
:100110000B96C5880B12D788930500200B9AD588BB
:10012000B7350020938505100B98C5880B9AC588B4
:100130000B14D788930500010B9CD5889305A0214B
:100140000B94E588B73500009385057F0B940589EE
:100150000B9607890B121789B735000093850501A7
:100160000B9A15890B1425890B9447890B9647899F
:100170000B125789130700600B1A57890B146589F6
:10018000370700100B1487890B9687890B92978984
:100190000B9A95899305B0200B94A5890B14C789F8
:1001A0000B96C7890B92D7890B1AD6890B98C689EB
:1001B0000B9AC6890B94D7890B1CD3890B9CC889D1
:1001C0000B9EC7890B96D7890B1ED8899307B0233E
:1001D0000B94E789678000000B16058093070000E9
:1001E0000B980780370701000B14178013070008CE
:1001F0000B1C17801307A0200B1627800B9007807D
:100200006780000067800000130101FF2322910036
:10021000B704020083A704002324810037141C7E46
:1002200023261100130454DE63868700EFF0DFE31A
:1002300023A08400B707030083A707003707003017
:10024000B3E7E7000B901780130710000B1007802F
:10025000B707180023A0E7020B2000008320C1008D
:100260000324810083244100130101016780000001
:10027000B7370000938707100B98078037070100F6
:100280000B141780930700200B9C1780B7370020B2
:10029000938707100B9C07800B16178093070001AC
:1002A0000B9E1780930780210B96278093070000F1
:1002B0000B900780B70718001307100023A0E70270
:1002C0000B20000067800000B715000037350000E4
:1002D00093850581130505886FF01FD4374500000D
:1002E00093050060130505806FF01FD337450000AC
:1002F00093050060130505E06FF01FD2374500003D
:1003000093050060130505406FF01FD137550000BD
:1003100093050060130505A06FF01FD093050060E2
:10032000375500006FF05FCF375500009305006030
:10033000130505606FF05FCE376500009305006020
:10034000130505C06FF05FCDB735000037750000AD
:1003500093850501130505806FF01FCC130101FF84
:1003600023229100B704020083A704002324810004
:1003700037141C7E23261100130454DE6386870085
:10038000EFF09FCE23A08400B70718009387870063
:100390003707180083A707008325C701638A050074
:1003A00013870702930610023357D702B387E7403B
:1003B0003707180013078701032707000B1807806A
:1003C000370601000B1416800B9C17809306200043
:1003D0006386050213174700B7060020135747002E
:1003E0003367D7000B1C07800B1616809387F70125
:1003F00093D757000B9E17809306600093962600B4
:1004000093E606200B962680930700000B9007804A
:10041000B70718001307100023A0E7020B20000005
:100420008320C100032481008324410013010101C2
:1004300067800000930700000B9607800B980780E9
:10044000370701000B141780930600080B9C1680D9
:10045000B70600200B9A06800B9C06800B161780AF
:10046000130740000B1E17801307A0210B162780CF
:100470000B9007800B20000067800000130101FF34
:100480003785000023261100EFF01FD50B20000058
:100490008320C1001301010167800000130101FFE7
:1004A00037C5000023261100EFF01FD30B200000FA
:1004B0008320C100130101016780000093075000F1
:1004C0000B9007800B2000006780000093077000EE
:1004D0000B9007800B2000006780000013050000D0
:1004E0006FF0DFB5130510006FF05FB51305200046
:1004F0006FF0DFB4130530006FF05FB413054000F8
:100500006FF0DFB3130550006FF05FB313056000A9
:100510006FF0DFB2B70703009387870083A7070058
:100520003767000013070710B387E7020B980780AF
:10053000930790000B9007800B200000678000005D
:10054000B7770000938707800B9807809307900088
:100550000B9007800B20000067800000B7070300A6
:100560009387870083A707003767000013070710EA
:10057000B387E70237770000130707800B16078061
:100580000B9807801307A0000B1627801307900015
:100590000B1007800B9807800B1007800B200000C2
:1005A00067800000B7770000938707800B9607806D
:1005B0000B9807801307A0000B16278013079000E5
:1005C0000B1007800B9807800B1007800B20000092
:1005D00067800000130101FF23229100B70402008D
:1005E00083A704002324810037141C7E23261100D6
:1005F000130454DE63868700EFF01FA723A0840056
:10060000B707030003A68700B70718009387870181
:1006100083A707000B980780930600000B941680B1
:1006200037370000130707010B1C1780373700000E
:1006300013070708B3D7E702939727000B92278089
:10064000930710000B942780930790100B96278038
:100650000B90068037370400130707F8931726001E
:10066000B387E70003A707001307170023A0E700DD
:10067000B74704009387077883A7070093B717004D
:10068000938717006316F704B7460400B7470400C2
:10069000938787789386467883A7070003A7060089
:1006A0009305F0033387E74063E6E50413F7F703A8
:1006B000B7460400131727009386C6783307D70080
:1006C0002320C70093871700374704002324F778B7
:1006D000B70718001307100023A0E7020B20000043
:1006E0008320C10003248100832441001301010100
:1006F0006780000003A706006FF0DFFAB70703006A
:1007000083A7070037470400130707749397270050
:10071000B387E7003747040083A7070083250778DE
:100720003707030013078700032707003766000019
:10073000130606103307C702B73600009386060873
:10074000B387C7023307D70063920504370600104A
:10075000B3E5C7000B9605800B1807809305B00022
:100760000B9625809305D0000B900580B387D700AA
:10077000B3E7C7000B9607800B1807809307D000DC
:100780000B9007800B20000067800000B706001068
:10079000B3E7D7006FF01FFE130101FF2322910082
:1007A000B704020083A704002324810037141C7EB1
:1007B00023261100130454DE63868700EFF0DF8ADE
:1007C00023A08400B786040083A506FFB7170000A6
:1007D000938757FFB3F7F50237060300032586001A
:1007E00037070080938515003365E500374704001F
:1007F000130747FD13068600139827003307E80008
:100800002320A70023A8B6FEB72600009386068003
:10081000B387D702032606000B9807801307000052
:100820000B1417800B9C1680B7060020B3E7D70087
:100830000B9C07800B1617809307000C0B9E1780EC
:10084000B7070030B367F6000B9017800B181780BE
:10085000930700100B9027800B122880930610003E
:100860000B942680930790130B9627800B1007801C
:10087000B707180023A0D7020B2000008320C10077
:1008800003248100832441001301010167800000DB
:10089000B707030083A7070037870400130707FB88
:1008A00093972700B387E70083A707003717000057
:1008B000130757FFB3F7E702372700001307078036
:1008C000B387E7023707001033E7E7000B1607800E
:1008D000130700000B18078037070020B3E7E70075
:1008E0000B9A07800B1C0780B707030093878700CC
:1008F00083A7070037070030B3E7E7000B9E0780A8
:100900009307F0000B9007800B2000006780000029
:10091000B707030083A7070037870400130707FB07
:1009200093972700B7860400B387E70003A7070063
:1009300083A746FF1386170023AAC6FE37160000BA
:10094000130656FF3377C702B7260000938606804A
:10095000B3F7C7023307D702B387D702B706001031
:10096000B366D7000B9606800B980780B706002069
:100970003367D7000B1A0780B3E7D7000B9C0780BB
:10098000B70703009387870083A707003707003066
:10099000B3E7E7000B9E07809307F0000B900780FA
:1009A0000B200000678000000B20008067800000A3
:1009B000B787040003A787FF1307170023ACE7FEE0
:1009C000B7071800938787003707180083A7070029
:1009D0000326C701630A0600138707029306100265
:1009E0003357D702B387E74037071800130787014B
:1009F000032707009306100063060600B7060100F0
:100A0000938616000B180780930500000B94158041
:100A10000B9C178013D6060193062000630606027E
:100A200013174700B7060020135747003367D70056
:100A30000B1C07800B9615809387F70193D75700FF
:100A40000B9E1780930660009396260093E616008F
:100A50000B962680930700000B900780B7071800BD
:100A60001307100023A0E7020B200000678000009E
:100A70000B200080678000000B2000806780000052
:00000001FF
