:100000001701020013010140970102009381817FD3
:10001000EF0080000B20000067800000370703001E
:1000200083270700B786000003270700939707017F
:10003000B386D7000B940680B7C60000B387D700FD
:100040000B960780931727013707030013076700F4
:10005000B3E7E7000B9007800B20000067800000EB
:10006000B707030083A70700373700001307078986
:10007000939707013387E7000B140780930620103E
:100080000B90068037370000130707C93387E70056
:100090000B14078037370000130707103387E7007A
:1000A0000B160780130760200B10078037370000FE
:1000B000130707A93387E7000B1407800B9006800E
:1000C00037370000130707E93387E7000B14078071
:1000D0003737000013070720B387E7000B96078028
:1000E000B7070100938767200B9007800B20000063
:0400F0006780000025
:00000001FF
