:100000001701020013010149970102009381817FCA
:10001000EF00C0050B1000006FF0DFFF93070060DA
:100020003305F502B7470000938707801307000CDC
:100030003305F500B787000023A0A720B78700008D
:1000400023A2A720B787000023A2E722378700005A
:10005000B78700001307270023A4E722B707030090
:100060001307100023A8E70067800000B78700008F
:1000700023A4072067800000B787000003A747215B
:10008000B787000023ACE720B7071800130710005C
:1000900023A0E702B707030023A8E700678000005A
:1000A000B787000023A00720B787000023A20720FE
:1000B00013070001B787000023A2E722379700004B
:1000C000B78700001307278023A4E722B7070300A0
:1000D0001307100023A8E70067800000B78700001F
:1000E0003787000023A0E720B787000023A207205E
:1000F00013070001B787000023A2E722378700001B
:10010000B78700001307270023A4E722B7070300DF
:100110001307100023A8E70067800000B7870000DE
:1001200037C7000023A0E720B787000023A20720DD
:1001300013070001B787000023A2E72237870000DA
:10014000B78700001307270023A4E722B70703009F
:100150001307100023A8E70067800000B78700009E
:100160003727000023A0E72037370000B7870000BB
:100170001307078823A2E720B78700001307201082
:1001800023A2E72237870000B78700001307270064
:1001900023A4E722B70703001307100023A8E700F2
:1001A00067800000B737000093870710378700008B
:1001B0002320F720378700002322F720B78700008D
:1001C0001307000423A2E72237970000B787000037
:1001D0001307278023A4E722B707030013071000A3
:1001E00023A8E70067800000130500006FF01FE3FD
:1001F000130510006FF09FE2130520006FF01FE25F
:10020000130530006FF09FE1130540006FF01FE110
:10021000130550006FF09FE0130560006FF01FE0C2
:10022000B70703009387870083A70700376700009D
:100230001307071093F7F700B387E702B7360000FC
:10024000378700009386067F2320D720378700005A
:100250002322F720B78700001307206023A2E7229C
:1002600037870000B78700001307270023A4E72281
:10027000B70703001307100023A8E70067800000FA
:10028000370703008327870083268700370704008A
:1002900093F7F7001307072093972700B387E7002A
:1002A00023A0D70013071000B707180023A0E70208
:1002B000B707030023A8070067800000B707030003
:1002C00083A7070037070400130707309397270019
:1002D000B387E70003A70700B767000093870710FD
:1002E0003307F702B787000023A0E720B787000095
:1002F0003717000023A20720130707C2B7870000A3
:1003000023A2E72237870000B787000013074700C2
:1003100023A4E722B70703001307100023A8E70070
:1003200067800000B70703009387870083A7070053
:10033000376700001307071093F7F700B387E7024A
:100340003737000013070708B387E7003787000037
:1003500023200720378700002322F720B7870000DB
:100360001307206023A2E72237870000B787000029
:100370001307270023A4E722B70703001307100081
:1003800023A8E70067800000370704008326875C06
:10039000B707030083A587003706040093F7F6002C
:1003A0009397270013060654B387C70023A0B7000E
:1003B000938616002324D75CB70718001307100094
:1003C00023A0E702B707030023A807006780000007
:1003D000B707030083A707003707040013078758F0
:1003E00093972700B387E70083A70700372700000C
:1003F0001307078093F7F700B387E70237870000FA
:100400002320F720B787000023A20720130700301E
:10041000B787000023A2E72237970000B7870000C4
:100420001307378023A4E722B70703001307100040
:1004300023A8E70067800000B707030083A7070031
:10044000370704001307875893972700B70604005F
:10045000B387E70003A7070083A7C65C1377F700FD
:100460001386170023A6C65CB72600009386068075
:100470003307D70293F7F700B387D702B786000098
:1004800023A0E620378700002322F720B78700004B
:100490001307003023A2E72237970000B787000038
:1004A0001307378023A4E722B707030013071000C0
:1004B00023A8E70067800000B707030013071000B8
:1004C00023A8E70067800000B707040003A7075DC3
:1004D0001307170023A8E75CB707180013071000DD
:1004E00023A0E702B707030023A8070067800000E6
:1004F000B787000003A74721B787000023ACE72098
:10050000B70703001307100023A8E7006780000067
:10051000B70703001307100023A8E7006780000057
:100520002F6C69622F6C642D6C696E75782D726901
:1005300073637633322D696C7033322E736F2E31C4
:0105400000BA
:1005440000000000000000000000000000000000A7
:100554000000000000000000000000000300010093
:010564000096
:100568000100000001000000010000000000000080
:0805780000000000000000007B
:020000022000DC
:10000000F5FEFF6F680500000500000064050000B4
:1000100006000000440500000A0000000100000086
:100020000B000000100000001500000000000000A0
:1000300007000000000000000800000000000000B1
:10004000090000000C0000001E0000000800000075
:10005000FBFFFF6F0100000800000000000000002F
:100060000000000000000000000000000000000090
:100070000000000000000000000000000000000080
:08008000000000000000000078
:040088000000020072
:00000001FF
