:100000001701020013010149970102009381817FCA
:10001000EF00001C0B1000006FF0DFFF370E030035
:1000200003230E00032F0E00B79E000093970701D5
:1000300023A8EE05B70E030003AF4E00B79E0000E5
:10004000B3E7E70023AAEE05B70E030003AF8E0067
:10005000B79E00001313030123ACEE05B79E00000A
:1000600023A4DE00379700002326F7003305650040
:10007000B797000023A8A700B797000023AAB700EE
:1000800033066600B797000023AEC700B79700009D
:1000900023A00707B797000023A2C7071307200074
:1000A0006384080013072010B797000023A4E70615
:1000B00037270000B79700001307078023A4E70441
:1000C000B79700003707010023AEE704B797000099
:1000D0001307100023A0E700678000003797000097
:1000E000130747008327070093F71700E39C07FED9
:1000F00067800000930700303305F50237260000C3
:10010000130101FE9308000013080020930740002C
:100110001307600093069002130606019305000082
:10012000232E11002326A100EFF05FEFEFF01FFB5D
:100130000325C10037260000930740001307600025
:10014000930800001308002093069002130606414E
:10015000B7051000EFF09FECEFF05FF88320C101CE
:10016000B70703001307100023A8E70013010102DB
:1001700067800000930700603305F50237460000F2
:1001800013060680130101FF930760001307400068
:1001900093081000130800109306B002B705200062
:1001A0003306C5003735000013050510232611005E
:1001B000EFF0DFE6EFF09FF28320C100B707030006
:1001C0001307100023A8E700130101016780000056
:1001D000B797000023A2070267800000B70603005C
:1001E00083A7060003A60600B796000093970701B1
:1001F00023A8C604B706030003A64600B79600006E
:100200003787000023AAC604B706030003A68600AA
:10021000B79600003387E70023ACC604B79600000A
:100220001306900223A4C60037060100B79600000B
:100230001306160023A6C600B796000023A8F600F2
:10024000B797000023AA0700B797000023AEE70086
:1002500013071000B797000023A0E700B7070300BB
:1002600023A8E70067800000130500006FF09FE8F7
:10027000130510006FF01FE8130520006FF09FE7D3
:10028000130530006FF01FE7130540006FF09FE685
:10029000130550006FF01FE6130560006FF09FE537
:1002A000130570006FF01FE5130500006FF09FEC61
:1002B000130510006FF01FEC130520006FF09FEB8B
:1002C000130530006FF01FEB130540006FF09FEA3D
:1002D000130550006FF01FEA130560006FF09FE9EF
:1002E000130570006FF01FE9B707040083A60738F5
:1002F0001306000137070400930700008325070059
:1003000063820506930547006396060003254700B0
:10031000630A05042320070023A005003707030014
:1003200003270700B706040093860630131727003B
:100330003307D7002320F7003707040013070720EF
:1003400093972700B387E70003A70700B7070300C9
:1003500023A4E700B70703001307100023A8E70052
:10036000678000009387170013078700E398C7F89A
:100370006FF05FF8B7060400B70504003706040005
:1003800093864658938505501306065803A7060022
:100390009377F70093972700B387B70083A70700E9
:1003A000638607001307170023A0E60083270600D3
:1003B000E30EF7FC93F5F70037070400939625004A
:1003C000130707503387E6002320070093871700A1
:1003D0002320F600B707030083A7070037070400B0
:1003E0001307875893972700B387E70023A0B70028
:1003F000B707040093870754B386F60003A70600E7
:10040000B707030023A4E700B70703001307100092
:0804100023A8E700678000004B
:100418002F6C69622F6C642D6C696E75782D72690A
:1004280073637633322D696C7033322E736F2E31CD
:0104380000C3
:10043C0000000000000000000000000000000000B0
:10044C00000000000000000000000000030001009C
:01045C00009F
:100460000100000001000000010000000000000089
:08047000000000000000000084
:020000022000DC
:10000000F5FEFF6F60040000050000005C040000C6
:10001000060000003C0400000A000000010000008F
:100020000B000000100000001500000000000000A0
:1000300007000000000000000800000000000000B1
:10004000090000000C0000001E0000000800000075
:10005000FBFFFF6F0100000800000000000000002F
:100060000000000000000000000000000000000090
:100070000000000000000000000000000000000080
:08008000000000000000000078
:040088000000020072
:00000001FF
