:100000001701020013010140970102009381817FD3
:10001000EF0080110B200000B707040093876700F2
:100020000B920780B7370000938707100B94078067
:10003000370701000B160780930700603305F502B0
:10004000B7470000938707803305F5000B1805803C
:100050000B1A0780B70720000B9E0780B707030025
:100060000B901780930700100B9C0780B7878001C7
:100070009387B7080B941780930710000B900780A5
:100080000B20000067800000930700303707060050
:100090003305F502130747000B1207800B14058088
:1000A000B70701000B960780B7260000938606016C
:1000B0000B9806800B9A0780930600000B9E068023
:1000C000B70503000B901580370600020B1C068055
:1000D000B78600009386A6080B941680930610003E
:1000E0000B9006800B1207800B1405800B9607807F
:1000F00037270000130707410B1807800B9A07806A
:10010000B70710000B9E07800B9015800B1C068014
:10011000B78700019387A7080B9417800B90068080
:100120000B2000006780000067800000B707010017
:1001300037070100938717000B9207809307000091
:100140000B9407800B160780B78600000B9806807B
:100150000B1A07800B9E0780B70700019387A7083B
:100160000B941780930710000B9007800B20000062
:1001700067800000130500006FF01FF113051000E9
:100180006FF09FF0130520006FF01FF01305300093
:100190006FF09FEF130540006FF01FEF1305500045
:1001A0006FF09FEE130560006FF01FEE13057000F7
:1001B0006FF09FED130500006FF01FE613051000B0
:1001C0006FF09FE5130520006FF01FE51305300069
:1001D0006FF09FE4130540006FF01FE4130550001B
:1001E0006FF09FE3130560006FF01FE313057000CD
:1001F0006FF09FE2B74604003747040093864678C5
:100200001307877883A7060003260700E30CF6FE92
:1002100013F7F703374604001306C67813172700B1
:100220003307C700938717000326070023A0F600B3
:10023000B747040083A607783707040093173600F2
:1002400093B61600B705040013074700B385B7003F
:1002500093861600B387E70003A5050003A70700F0
:100260003335A0003337E0003307A700E366D7FE3D
:10027000B736040013172600938606F83307D70015
:100280002320070023A0050023A00700B7070300D1
:1002900083A70700374704001307077493972700C5
:1002A000B387E70023A0C700B707030023A4C70054
:1002B0000B20008067800000B78504003715000020
:1002C000378604009385C5FA130555FF37080400E7
:1002D000130686FA83A7050033F7A7021317270032
:1002E00033070701032707006306070093871700FA
:1002F00023A0F50083260600E38ED7FCB717000085
:10030000938757FFB3F7F602B705040093861600EC
:1003100013972700B305B70023A005002320D600BC
:10032000B706030083A6060037860400130606FB03
:1003300093962600B386C60023A0F600B7470400B4
:10034000938747FD3307F70083270700E3DE07FEA7
:10035000939717002320070093D717003707030050
:0C0360002324F7000B20008067800000C1
:00000001FF
