:100000001701020013010140970102009381817FD3
:10001000EF0080000B20000067800000370703001E
:1000200083270700B786000003270700939707017F
:10003000B386D7000B940680B7C60000B387D700FD
:100040000B960780931727013707030013076700F4
:10005000B3E7E7000B9007800B20000067800000EB
:10006000B707030083A70700130700209397070132
:100070000B12078037370000130707893387E70023
:100080000B14078037070001130737100B10078088
:1000900037370000130707C93387E7000B140780C1
:1000A0003737000013070710B387E7000B96078068
:1000B000B7070100938777200B9007800B20000083
:0400C0006780000055
:00000001FF
