:100000001701020013010141970102009381817FD2
:10001000EF0000250B200000B707030083A70700AF
:1000200037070040B3E7E7000B9407800B18058003
:100030000B9C1580930730000B900780B7071800C2
:100040001307100023A0E7020B20000067800000C8
:10005000B707030083A7070037070040B3E7E700AF
:100060000B920780930700603305F502B747000045
:10007000938707803305F5000B1605800B18058064
:100080009307B0000B9007800B20000067800000F2
:10009000630C0502B707030083A70700370700407A
:1000A000B3E7E7000B920780B777000093870780DC
:1000B0000B9607800B9805809307A0000B9627806E
:1000C000930790000B900780B707030083A70700F2
:1000D00037070040B3E7E7000B9207800B980580D5
:1000E000930790000B9007800B20000067800000B2
:1000F000930700000B9407880B96078837070100C9
:100100000B12178837260000130606800B1A168874
:10011000B70600200B9806880B9A06880B141788E0
:100120001303000C0B1C13880B9C0788B7080030C6
:100130000B9E08880B961788130800100B1E188852
:10014000930580230B9425880B9447880B9647884A
:100150000B1257880B9A5788930580200B9465885B
:10016000B72500000B948588B73500009385058876
:100170000B9685880B129788B7150000938505812B
:100180000B9A95881305A0200B14A588B73500009D
:10019000938505100B94C5880B96C5880B12D788DC
:1001A000930500200B9AD588B7350020938505105C
:1001B0000B98C5880B9AC5880B14D7889305000146
:1001C0000B9CD5889305A0210B94E588B7350000DA
:1001D0009385057F0B9405890B9607890B12178968
:1001E000B7350000938505010B9A15890B142589F5
:1001F0000B9447890B9647890B12578913070060A8
:100200000B1A57890B146589370700100B1487895F
:100210000B9687890B9297890B9A95899305B02045
:100220000B94A5890B14C7890B96C7890B92D789A4
:100230000B1AD6890B98C6890B9AC6890B94D78955
:100240000B1CD3890B9CC8890B9EC7890B96D78939
:100250000B1ED8899307B0230B94E78967800000B1
:1002600067800000130101FF23229100B704020000
:1002700083A704002324810037141C7E2326110049
:10028000130454DE63868700EFF09FE623A084000A
:100290003707030083270700B7060040B3E7D700FE
:1002A0000B9407808327070037070030B3E7E70088
:1002B0000B901780130710000B100780B70718006A
:1002C00023A0E7020B2000008320C100032481004B
:1002D000832441001301010167800000B707030078
:1002E00083A7070037070040B3E7E7000B940780B8
:1002F000B7370000938707100B9807803707010076
:100300000B141780930700200B9C1780B737002031
:10031000938707100B9C07800B161780930700012B
:100320000B9E1780930780210B9627809307000070
:100330000B900780B70718001307100023A0E702EF
:100340000B20000067800000B71500003735000063
:1003500093850581130505886FF01FCC3745000094
:1003600093050060130505806FF01FCB3745000033
:1003700093050060130505E06FF01FCA37450000C4
:1003800093050060130505406FF01FC93755000045
:1003900093050060130505A06FF01FC8930500606A
:1003A000375500006FF05FC73755000093050060B8
:1003B000130505606FF05FC63765000093050060A8
:1003C000130505C06FF05FC5B73500003775000035
:1003D00093850501130505806FF01FC4130101FF0C
:1003E00023229100B704020083A704002324810084
:1003F00037141C7E23261100130454DE6386870005
:10040000EFF01FCF23A08400B70718009387870061
:100410003707180083A707008325C701638A0500F3
:1004200013870702930610023357D702B387E740BA
:100430003707180013078701B706030003270700D3
:1004400083A6060037060040B3E6C6000B9406807C
:100450000B180780370601000B1416800B9C1780C1
:10046000930620006386050213174700B706002095
:10047000135747003367D7000B1C07800B161680F5
:100480009387F70193D757000B9E17809306600060
:100490009396260093E606200B962680930700008D
:1004A0000B900780B70718001307100023A0E7027E
:1004B0000B2000008320C10003248100832441001D
:1004C0001301010167800000930700000B9607806D
:1004D0000B980780370701000B141780930600085C
:1004E0000B9C1680B70600200B9A06800B9C06809A
:1004F0000B161780130740000B1E17801307A0214F
:100500000B1627803707030003270700B7060040B4
:100510003367D7000B1207800B9007800B20000079
:1005200067800000B78700000B9607801307000064
:100530000B180780B70701000B941780930700087A
:100540000B9C17809307A0200B962780B70703000A
:1005500083A70700B7060040B3E7D7000B920780D8
:100560000B1007800B20000067800000B7C7000059
:100570000B960780130700000B180780B7070100D0
:100580000B941780930700080B9C17809307A020FB
:100590000B962780B707030083A70700B706004024
:1005A000B3E7D7000B9207800B1007800B200000E9
:1005B00067800000B707030083A7070037070040E4
:1005C000B3E7E7000B920780930750000B9007807A
:1005D0000B20000067800000B707030083A7070017
:1005E00037070040B3E7E7000B92078093077000DE
:1005F0000B9007800B2000006780000013050000AF
:100600006FF01FA5130510006FF09FA413052000C5
:100610006FF01FA4130530006FF09FA31305400077
:100620006FF01FA3130550006FF09FA21305600029
:100630006FF01FA2B707030083A58700B76700000C
:1006400093870710B385F502130500006FF05FA4D0
:10065000B775000093850580130500006FF05FA358
:10066000B707030083A58700B767000093870710CB
:10067000B385F502130510006FF09FA1B775000058
:1006800093850580130510006FF09FA0130101FFF3
:1006900023229100B704020083A7040023248100D1
:1006A00037141C7E23261100130454DE6386870052
:1006B000EFF01FA423A08400B707030003A6870060
:1006C000B70718009387870183A7070013176600F1
:1006D0000B1407800B980780930600000B9416807C
:1006E00037370000130707010B1C1780373700004E
:1006F00013070708B3D7E702939727000B922780C9
:10070000930710000B942780930790100B96278077
:100710000B90068037370400130707F8931726005D
:10072000B387E70003A707001307170023A0E7001C
:10073000B74704009387077883A7070093B717008C
:10074000938717006316F704B7460400B747040001
:10075000938787789386467883A7070003A70600C8
:100760009305F0033387E74063E6E50413F7F703E7
:10077000B7460400131727009386C6783307D700BF
:100780002320C70093871700374704002324F778F6
:10079000B70718001307100023A0E7020B20000082
:1007A0008320C1000324810083244100130101013F
:1007B0006780000003A706006FF0DFFAB7070300A9
:1007C00083A7070037470400130707749397270090
:1007D000B387E700B70603003747040083A7070085
:1007E0000325077803A78600B765000093850510E9
:1007F0003307B7029386860083A6060037360000CB
:100800001306060893966600B387B7023307C7003E
:10081000631605040B920680B705001033E5B70098
:100820000B1605800B1807801305B0000B162580EA
:100830001305D0000B100580B387C700B3E7B700DE
:100840000B9607800B9206800B1807809307D00049
:100850000B9007800B200000678000003706001017
:10086000B3E7C7006FF0DFFD130101FF2322910002
:10087000B704020083A704002324810037141C7EE0
:1008800023261100130454DE63868700EFF05F8691
:1008900023A0840037860400832506FFB7170000D5
:1008A000938757FFB3F7F502370703000325870047
:1008B000B7060080938515003365D500B746040060
:1008C000938646FD1307870013982700B306D800C8
:1008D00023A0A6002328B6FE03260700032707004F
:1008E000B726000093860680B387D70213176700E8
:1008F0000B1407800B980780130700000B14178058
:100900000B9C1680B7060020B3E7D7000B9C07802E
:100910000B1617809307000C0B9E1780B70700304B
:10092000B367F6000B9017800B1817809307001021
:100930000B9027800B122880930610000B942680C2
:10094000930790130B9627800B100780B7071800AA
:1009500023A0D7020B2000008320C10003248100C4
:10096000832441001301010167800000B7070300E1
:1009700083A7070037870400130707FB9397270017
:10098000B387E70083A7070037170000130757FF57
:10099000B3F7E7023727000013070780B387E702A2
:1009A00037070300832687001307870093966600A6
:1009B0000B920680B7060010B3E6D7000B960680B0
:1009C000930600000B980680B7060020B3E7D70017
:1009D0000B9A07800B9C068083270700370700309F
:1009E000B3E7E7000B9E07809307F0000B900780AA
:1009F0000B20000067800000B707030083A70700F3
:100A000037870400130707FB93972700B786040076
:100A1000B387E70003A7070083A746FF13861700E5
:100A200023AAC6FE37160000130656FF3377C70207
:100A3000B726000093860680B3F7C7023307D702B4
:100A4000B387D702B706030003A686009386860005
:100A5000131666000B120680370600103366C700B7
:100A60000B1606800B980780370600203367C700F7
:100A70000B1A0780B3E7C7000B9C078083A706000B
:100A800037070030B3E7E7000B9E07809307F000BD
:100A90000B9007800B200000678000000B20008077
:100AA00067800000B787040003A787FF13071700BC
:100AB00023ACE7FEB70718009387870037071800B5
:100AC00083A707000326C701630A060013870702EE
:100AD000930610023357D702B387E7403707180051
:100AE000130787010327070093061000630606001B
:100AF000B70601009386160037060300032606009A
:100B0000B70500403366B6000B1406800B1807804B
:100B1000930500000B9415800B9C178013D60601DB
:100B2000930620006306060213174700B70600204D
:100B3000135747003367D7000B1C07800B961580AF
:100B40009387F70193D757000B9E17809306600099
:100B50009396260093E616000B96268093070000D6
:100B60000B900780B70718001307100023A0E702B7
:100B70000B200000678000000B20008067800000D1
:080B80000B20008067800000DB
:00000001FF
