:100000001701020013010149970102009381817FCA
:10001000EF00C0000B1000006FF0DFFFB78700009B
:1000200023A4072067800000B787000003A74721AB
:10003000B787000023ACE720B707030023A8070019
:1000400067800000B787000023A00720B787000063
:1000500023A2072013070004B787000023A2E7228A
:1000600037870000B78700001307270023A4E72283
:10007000B707030023A8070067800000B7870000C8
:1000800023A00720B787000023A20720130700043E
:10009000B787000023A2E72237870000B787000058
:1000A0001307270023A4E722B707030023A80700AC
:1000B00067800000B787000023A00720B7870000F3
:1000C00023A2072013070004B787000023A2E7221A
:1000D00037870000B78700001307270023A4E72213
:1000E000B707030023A8070067800000B787000058
:1000F00023A00720B787000023A2072013070004CE
:10010000B787000023A2E722B787000037870000E7
:1001100023A4E722B707030023A807006780000095
:10012000B787000023A00720B787000023A207207D
:1001300013070004B787000023A2E722B787000057
:100140003787000023A4E722B707030023A807008E
:1001500067800000B787000023A00720B787000052
:1001600023A2072013070004B787000023A2E72279
:1001700037870000B78700001307270023A4E72272
:10018000B707030023A8070067800000B7870000B7
:100190003787000023A0E720B787000023A20720AD
:1001A00013070001B787000023A2E722378700006A
:1001B000B78700001307270023A4E722B70703002F
:1001C00023A8070067800000B787000037C700003A
:1001D00023A0E720B787000023A207201307000110
:1001E000B787000023A2E72237870000B787000007
:1001F0001307270023A4E722B707030023A807005B
:1002000067800000B70703009387870083A7070074
:100210003707040013070740B7C60000032707008D
:100220009386062093F7F700B387D702B7660000DE
:10023000938606103307D702B7A600009386068080
:10024000B387E700378700002320D72037870000D7
:100250002322F72037170000B7870000130727C0B5
:1002600023A2E72237870000B78700001307270083
:1002700023A4E722B707030023A807006780000034
:10028000370703008327870083268700370704008A
:1002900093F7F7009397270013070720B387E7002A
:1002A00023A0D700B707030023A80700678000003A
:1002B000B707030083A707003707040013070730B9
:1002C00093972700B387E70003A70700B7C700008D
:1002D000938707203307F702B787000023A0E720A2
:1002E000B78700003727000023A2072013070784E1
:1002F000B787000023A2E72237870000B7870000F6
:100300001307470023A4E722B707030023A8070029
:1003100067800000B70703009387870083A7070063
:1003200037C700001307072093F7F700B387E702EA
:100330003767000013070710B387E700378700000F
:1003400023200720378700002322F72037170000DB
:10035000B7870000130727C023A2E72237870000D2
:10036000B78700001307270023A4E722B70703007D
:1003700023A8070067800000370704008326875CF6
:10038000B707030083A587003706040093F7F6003C
:100390009397270013060654B387C70023A0B7001E
:1003A000938616002324D75CB707030023A8070011
:1003B00067800000B707030083A707003707040022
:1003C0001307875893972700B387E70083A7070091
:1003D0003737000093F7F700B387E702378700004D
:1003E0002320F720B787000023A20720130700600F
:1003F000B787000023A2E72237870000B7870000F5
:100400001307370023A4E722B707030023A8070038
:1004100067800000B707030083A7070037070400C1
:100420001307875893972700B7060400B387E700A0
:1004300003A7070083A7C65C1377F700138617008E
:1004400023A6C65CB73600003307D70293F7F70040
:10045000B387D702B786000023A0E62037870000C5
:100460002322F720B78700001307006023A2E722AA
:1004700037870000B78700001307370023A4E7225F
:10048000B707030023A8070067800000B707030031
:100490001307100023A8E70067800000B7070400D7
:1004A00003A7075D1307170023A8E75CB70703003E
:1004B00023A8070067800000B787000003A7472133
:1004C000B787000023ACE720B7070300130710002D
:1004D00023A8E70067800000B70703001307100098
:0804E00023A8E700678000007B
:1004E8002F6C69622F6C642D6C696E75782D72693A
:1004F80073637633322D696C7033322E736F2E31FD
:0105080000F2
:10050C0000000000000000000000000000000000DF
:10051C0000000000000000000000000003000100CB
:01052C0000CE
:1005300001000000010000000100000000000000B8
:080540000000000000000000B3
:020000022000DC
:10000000F5FEFF6F30050000050000002C05000024
:10001000060000000C0500000A00000001000000BE
:100020000B000000100000001500000000000000A0
:1000300007000000000000000800000000000000B1
:10004000090000000C0000001E0000000800000075
:10005000FBFFFF6F0100000800000000000000002F
:100060000000000000000000000000000000000090
:100070000000000000000000000000000000000080
:08008000000000000000000078
:040088000000020072
:00000001FF
