:100000001701020013010149970102009381817FCA
:10001000EF00C0000B1000006FF0DFFFB7C700005B
:1000200023A207006780000037070300832707002B
:100030003786000003270700939707013386C70020
:10004000B7C50000B7C6000023A4C600B387B70039
:10005000B7C6000023A6F600931727013707020052
:1000600013076700B3E7E70023A0F50013071000AC
:10007000B707030023A8E7006780000037070300E5
:100080008327070037C6000003270700939707015F
:10009000B7860000B385C700B387D700B7C6000096
:1000A00023A4B600B7C6000023A6F60093172701C5
:1000B0003707020113076710B3E7E7002320F600B4
:1000C00013071000B707030023A8E70067800000AC
:1000D0009305400037D70000B707030083A7070048
:1000E000930640102320B700232AD70037D70000FB
:1000F000232207009306500037D700002326D7029B
:1001000037D70000232007049306001037D70000DC
:100110002328D70237D700002320B7103707300035
:100120001307671037D600002324E61037D60000E7
:10013000232206101305200037D600002326A6121E
:1001400037D60000232E06121305800037D6000094
:100150002320A61437D600002328D61237D6000055
:100160002320B62037D600002324E62037D700000E
:10017000130630202322C72037D70000232607226A
:1001800037D70000232EA72237D700002328D722F5
:100190003747000093970701130707803385E7006F
:1001A0003786000037670000B7C6000013070780D6
:1001B0001306068023A4A6003386C7003388E70011
:1001C0003703000137C700002326C700B7C500006A
:1001D0001303630023A0650023A4A600B708000151
:1001E0002326C7009388681023A0150123A40601C5
:1001F0002326C7003708000137560000130868207F
:100200001306068037750000379E000023A0050105
:100210003386C70013050580130E0E8023A4C60085
:100220003385A700B387C7012326F70023A0650005
:1002300023A4C6002326F70023A0150123A4A600AB
:100240002326F70023A0050137F7000083270700C6
:10025000E39E07FEB70703001307100023A8E7007B
:1002600067800000B707030003A7070013064000DC
:10027000B7D7000023A0C730B7D7000023A20730AC
:1002800093061000B7D7000023A6D73293050001CC
:10029000B7D7000023A0B734B717000093870780B3
:1002A000B7D6000023A8F632B7D6000023A0C64078
:1002B00037063000B7D600001306161023A4C64038
:1002C000B7D600001306402023A2C640B7D60000D0
:1002D00023A60642B7D6000023AEB642B7D600002A
:1002E00023A8F642B7660000131707019386061984
:1002F0009307070137C600003307D700B70800018E
:10030000B7C600003768000037050001B7250000B8
:1003100037C30000130686009386C60093886830B2
:100320001308081813056540938505082320F60077
:1003300023A0F60023201301338E07012320C601DA
:1003400023A0F6002320A300B387B700E390E7FEC5
:1003500037F7000083270700E39E07FEB707030077
:0C0360001307100023A8E70067800000CE
:10036C002F6C69622F6C642D6C696E75782D7269B7
:10037C0073637633322D696C7033322E736F2E317A
:01038C000070
:10039000000000000000000000000000000000005D
:1003A0000000000000000000000000000300010049
:0103B000004C
:1003B4000100000001000000010000000000000036
:0803C400000000000000000031
:020000022000DC
:10000000F5FEFF6FB403000005000000B003000020
:1000100006000000900300000A000000010000003C
:100020000B000000100000001500000000000000A0
:1000300007000000000000000800000000000000B1
:10004000090000000C0000001E0000000800000075
:10005000FBFFFF6F0100000800000000000000002F
:100060000000000000000000000000000000000090
:100070000000000000000000000000000000000080
:08008000000000000000000078
:040088000000020072
:00000001FF
