:100000001701020013010149970102009381817FCA
:10001000EF00C0000B1000006FF0DFFFB7C700005B
:1000200023A207006780000037070300832707002B
:100030003786000003270700939707013386C70020
:10004000B7C50000B7C6000023A4C600B387B70039
:10005000B7C6000023A6F600931727013707020052
:1000600013076700B3E7E70023A0F50013071000AC
:10007000B707030023A8E70067800000930530005E
:1000800037D70000B707030083A707009306401087
:100090002320B700232AD70037D7000023220700E8
:1000A0009306500037D700002326D70237D7000029
:1000B000232007049306001037D700002328D70217
:1000C00037D700002320B710370730001307671019
:1000D00037D600002324E61037D60000232206106E
:1000E0001308200037D600002326061337D6000059
:1000F000232E06121308800037D600002320061591
:1001000037D600002328D61237D600002320B62089
:1001100037D600002324E62037D70000130620201E
:100120002322C72037D700002326072237D7000015
:10013000232E07233735000037D700002328D72286
:1001400093970701130505893737000037360000FC
:10015000B7C600003385A700130707C913060610AA
:1001600023A4A6003386C7003388E70037030001C5
:1001700037C700002326C700B7C50000130363007C
:1001800023A0650023A4A600B70800012326C7000A
:100190009388681023A0150123A406012326C70015
:1001A000370800013736000013086820130606A937
:1001B00037350000373E000023A005013386C70015
:1001C000130505E9130E0E2023A4C6003385A700EE
:1001D000B387C7012326F70023A0650023A4C60028
:1001E0002326F70023A0150123A4A6002326F70049
:1001F00023A0050137F7000083270700E39E07FED1
:10020000B70703001307100023A8E700678000006A
:100210001306300037D70000B707030083A7070095
:100220002320C73037D70000232207309306100061
:1002300037D700002326D7329305000137D70000B7
:100240002320B7343727000013070780B7D60000F4
:1002500023A8E632B7D6000023A0C64037063000F8
:10026000B7D600001306161023A4C640B7D6000068
:100270001306302023A2C640B7D6000023A60642AC
:10028000B7D6000023AEB64293970701B7D6000059
:1002900023A8E64213860701B7C6000023A4C600C0
:1002A00037C70000B70500012326C70037C5000087
:1002B000938565302320B500B73500009385050987
:1002C000B387B70023A4F600B70700012326C700B1
:1002D000938767402320F50037F700008327070046
:1002E000E39E07FEB70703001307100023A8E700EB
:0402F0006780000023
:1002F4002F6C69622F6C642D6C696E75782D726930
:1003040073637633322D696C7033322E736F2E31F2
:0103140000E8
:1003180000000000000000000000000000000000D5
:1003280000000000000000000000000003000100C1
:0103380000C4
:10033C0001000000010000000100000000000000AE
:08034C000000000000000000A9
:020000022000DC
:10000000F5FEFF6F3C030000050000003803000010
:1000100006000000180300000A00000001000000B4
:100020000B000000100000001500000000000000A0
:1000300007000000000000000800000000000000B1
:10004000090000000C0000001E0000000800000075
:10005000FBFFFF6F0100000800000000000000002F
:100060000000000000000000000000000000000090
:100070000000000000000000000000000000000080
:08008000000000000000000078
:040088000000020072
:00000001FF
