:0200000480007A
:1000000097110400938101831741040013018106B5
:10001000971200009382428617030400130383FEA5
:100020009703040093830301637C730003AE020013
:100030002320C30193824200130343006FF0DFFECD
:1000400097020400938202FF1383818363F86200A6
:1000500023A00200938242006FF05FFF171400009C
:10006000130444819714000093840481637A9400FC
:1000700083220400E7800200130444006FF01FFF96
:100080001305000093050000EF00004CB7120010AC
:1000900023A0A2006F000000130101FF634E0504BE
:1000A00013070000930541001306A000B367C502C3
:1000B00013071700B386E5003345C502938707038E
:1000C000A38FF6FEE31405FE370700103705001076
:1000D0001307570003C6F6FF8347070093F717007F
:1000E000E38C07FE2300C5009386F6FFE394D5FE5C
:1000F0001301010167800000370700101307570044
:100100008347070093F71700E38C07FEB70700103B
:100110001307D0022380E7003305A0406FF05FF89B
:100120000346050063080602370700109306150012
:10013000B7050010130757008347070093F7170010
:10014000E38C07FE2380C50003C6060093861600D5
:10015000E31406FE678000006300060293070500B3
:100160003386C50003C705009385150093871700E4
:10017000A38FE7FEE398C5FE6780000093F5F50FB7
:10018000930705003307A600630806002380B70025
:1001900093871700E39CE7FE678000009387F5FFD5
:1001A000635AF002939727003306F5009307050082
:1001B00003A7070083A6470063D6E60023A0D70065
:1001C00023A2E70093874700E394C7FE1306C6FF08
:1001D000E31EC5FC678000006354B00293952500C0
:1001E00093070500B306B5001305000003A7070039
:1001F000938747003305E500E39AD7FE6780000048
:100200001305000067800000130101FF638EC51E07
:10021000B706048083A706033707001013080002FF
:100220009387170023A8F602B70600809386567CB2
:10023000B7080010130757008347070093F717000C
:10024000E38C07FE2380080103C80600938616008E
:10025000E31408FE0348050063080802370700108E
:100260009306150013075700370500108347070052
:1002700093F71700E38C07FE2300050103C806006F
:1002800093861600E31408FE37070010B7060080B7
:100290009386D67C13050002370800101307570019
:1002A0008347070093F71700E38C07FE2300A8009D
:1002B00003C5060093861600E31405FE63C205120B
:1002C00013070000130541001308A000B3E705035E
:1002D00013071700B306E500B3C5050393870703AB
:1002E000A38FF6FEE39405FE37070010B708001051
:1002F0001307570003C8F6FF8347070093F717005B
:10030000E38C07FE238008019386F6FFE314D5FEF5
:1003100037070010B70600809386567D1308000249
:10032000B7080010130757008347070093F717001B
:10033000E38C07FE2380080103C80600938616009D
:10034000E31408FE634A06061307A000B367E6023B
:1003500093851500B306B5003346E602938707037D
:10036000A38FF6FEE31406FE37070010B705001052
:100370001307570003C6F6FF8347070093F71700DC
:10038000E38C07FE2380C5009386F6FFE314D5FEB9
:1003900037070010130757008347070093F717002C
:1003A000E38C07FEB70700101307A0002380E700C7
:1003B0001301010167800000370700101307570081
:1003C0008347070093F71700E38C07FEB707001079
:1003D0001307D0022380E7003306C0406FF0DFF63A
:1003E00037070010130757008347070093F71700DC
:1003F000E38C07FEB70700101307D0022380E70045
:10040000B305B0406FF0DFEB37070010B706008090
:100410009386967B130600023708001013075700D7
:100420008347070093F71700E38C07FE2300C800FB
:1004300003C6060093861600E31406FE0346050075
:1004400063080602B70600101307150093865600CE
:100450003705001083C7060093F71700E38C07FEEB
:100460002300C5000346070013071700E31406FE28
:1004700037070010B70600809386167C130600022B
:1004800037050010130757008347070093F717003D
:10049000E38C07FE2300C50003C606009386160002
:1004A000E31406FE63CE05061307000013054100A2
:1004B0001306A000B3E7C50213071700B306E50053
:1004C000B3C5C50293870703A38FF6FEE39405FE29
:1004D00037070010B70500101307570003C6F6FFD3
:1004E0008347070093F71700E38C07FE2380C500BE
:1004F0009386F6FFE314D5FE370700101307570065
:100500008347070093F71700E38C07FEB707001037
:100510001307A0002380E70013010101678000009A
:1005200037070010130757008347070093F717009A
:10053000E38C07FEB70700101307D0022380E70003
:10054000B305B0406FF05FF637050080130101FE80
:100550001305C57D232E1100232C8100232A910031
:100560002328210123263101EFF09FBB370700101C
:10057000130757008347070093F71700E38C07FE24
:100580001307A000B70700102380E700B707048017
:1005900083A54703B7F7A5A59387C7DCB385F50007
:1005A00037050080B70404801306100093B51500CA
:1005B0001305057FEFF05FC5138404008325040055
:1005C000371500801306A00213050580EFF0DFC386
:1005D00013898180832509003715008013060000E8
:1005E00013058580EFF05FC2138504009305C000FA
:1005F000EFF0DFBA832504003715008013061000E2
:1006000013050581EFF05FC08325C4023715008014
:10061000130630061305C581EFF01FBF9387040052
:10062000930500009304040303A707009387470082
:10063000B385E500E39A97FE371500801306501A3C
:1006400013058582EFF05FBC832604001307440086
:1006500093051000938706008326070013074700C1
:10066000B3A7F6009387F7FFB3F5F500E31497FE01
:1006700037150080130610001305C582EFF0DFB8B0
:100680001307C40293040903130409009307090024
:1006900083260700938747001307C7FF23AED7FEC3
:1006A000E39897FE9305C00013858180EFF01FAF9C
:1006B0008325090037150080130610001305858374
:1006C000EFF09FB493050000832704001304440057
:1006D000B385F500E31A94FE371500801306501A0F
:1006E00013058584EFF05FB237150080130545854B
:1006F000EFF01FA3B717001003A58700EFF0DF99F5
:1007000037070010130757008347070093F71700B8
:10071000E38C07FEB70700101307A0002380E70053
:100720003704048083270403639807043715008087
:1007300013050586EFF0DF9E3707001013075700FB
:100740008347070093F71700E38C07FEB7070010F5
:100750001307A0002380E700032504038320C101C1
:100760000324810183244101032901018329C1005C
:10077000130101026780000037150080130585868C
:10078000EFF01F9A03250403EFF01F9137070010C5
:10079000130757008347070093F71700E38C07FE02
:1007A0006FF0DFFAB7175A5A938747233707048049
:0807B000232AF7026780000014
:1007B80020206F6B20202000203D20002020464173
:1007C800494C200020676F74200000002077616E7C
:1007D800742000007276333220706970656C696E1F
:1007E800652064656D6F0000626F6F742E6D6167C0
:1007F80069635F6F6B000000646174615B305D006A
:100808006273735B305D0000736F727465645B3094
:100818005D000000736F727465645B31315D0000C8
:1008280073756D0069735F736F727465640000009F
:10083800636F70795F736F727465645B305D00001D
:10084800636F70795F73756D000000002020637915
:10085800636C657320000000504153530000000092
:080868004641494C200000004C
:04087000A407008059
:100874002A000000070000006300000001000000DF
:100884003700000017000000080000004D000000C1
:10089400030000003D0000000F0000001E000000E7
:040000058000000077
:00000001FF
